{
  "_format": "hh-sol-artifact-1",
  "contractName": "Create",
  "sourceName": "contracts/VotingContract.sol",
  "abi": [
    {
      "inputs": [],
      "stateMutability": "nonpayable",
      "type": "constructor"
    },
    {
      "anonymous": false,
      "inputs": [
        {
          "indexed": true,
          "internalType": "uint256",
          "name": "candidateID",
          "type": "uint256"
        },
        {
          "indexed": false,
          "internalType": "string",
          "name": "age",
          "type": "string"
        },
        {
          "indexed": false,
          "internalType": "string",
          "name": "name",
          "type": "string"
        },
        {
          "indexed": false,
          "internalType": "string",
          "name": "image",
          "type": "string"
        },
        {
          "indexed": false,
          "internalType": "uint256",
          "name": "voteCount",
          "type": "uint256"
        },
        {
          "indexed": false,
          "internalType": "address",
          "name": "_address",
          "type": "address"
        },
        {
          "indexed": false,
          "internalType": "string",
          "name": "ipfs",
          "type": "string"
        }
      ],
      "name": "CandidateEvent",
      "type": "event"
    },
    {
      "anonymous": false,
      "inputs": [
        {
          "indexed": true,
          "internalType": "uint256",
          "name": "voter_voterID",
          "type": "uint256"
        },
        {
          "indexed": false,
          "internalType": "string",
          "name": "voter_name",
          "type": "string"
        },
        {
          "indexed": false,
          "internalType": "string",
          "name": "voter_image",
          "type": "string"
        },
        {
          "indexed": false,
          "internalType": "address",
          "name": "voter_address",
          "type": "address"
        },
        {
          "indexed": false,
          "internalType": "uint256",
          "name": "voter_allowed",
          "type": "uint256"
        },
        {
          "indexed": false,
          "internalType": "bool",
          "name": "voter_voted",
          "type": "bool"
        },
        {
          "indexed": false,
          "internalType": "uint256",
          "name": "voter_vote",
          "type": "uint256"
        },
        {
          "indexed": false,
          "internalType": "string",
          "name": "voter_ipfs",
          "type": "string"
        }
      ],
      "name": "VoterCreated",
      "type": "event"
    },
    {
      "inputs": [],
      "name": "_candidateID",
      "outputs": [
        {
          "internalType": "uint256",
          "name": "_value",
          "type": "uint256"
        }
      ],
      "stateMutability": "view",
      "type": "function"
    },
    {
      "inputs": [],
      "name": "_voterID",
      "outputs": [
        {
          "internalType": "uint256",
          "name": "_value",
          "type": "uint256"
        }
      ],
      "stateMutability": "view",
      "type": "function"
    },
    {
      "inputs": [
        {
          "internalType": "uint256",
          "name": "",
          "type": "uint256"
        }
      ],
      "name": "candidateAddress",
      "outputs": [
        {
          "internalType": "address",
          "name": "",
          "type": "address"
        }
      ],
      "stateMutability": "view",
      "type": "function"
    },
    {
      "inputs": [
        {
          "internalType": "address",
          "name": "",
          "type": "address"
        }
      ],
      "name": "candidates",
      "outputs": [
        {
          "internalType": "uint256",
          "name": "candidateID",
          "type": "uint256"
        },
        {
          "internalType": "string",
          "name": "age",
          "type": "string"
        },
        {
          "internalType": "string",
          "name": "name",
          "type": "string"
        },
        {
          "internalType": "string",
          "name": "image",
          "type": "string"
        },
        {
          "internalType": "uint256",
          "name": "voteCount",
          "type": "uint256"
        },
        {
          "internalType": "address",
          "name": "_address",
          "type": "address"
        },
        {
          "internalType": "string",
          "name": "ipfs",
          "type": "string"
        }
      ],
      "stateMutability": "view",
      "type": "function"
    },
    {
      "inputs": [],
      "name": "getCandidate",
      "outputs": [
        {
          "internalType": "address[]",
          "name": "",
          "type": "address[]"
        }
      ],
      "stateMutability": "view",
      "type": "function"
    },
    {
      "inputs": [],
      "name": "getCandidateLength",
      "outputs": [
        {
          "internalType": "uint256",
          "name": "",
          "type": "uint256"
        }
      ],
      "stateMutability": "view",
      "type": "function"
    },
    {
      "inputs": [
        {
          "internalType": "address",
          "name": "_address",
          "type": "address"
        }
      ],
      "name": "getCandidatedata",
      "outputs": [
        {
          "internalType": "string",
          "name": "",
          "type": "string"
        },
        {
          "internalType": "string",
          "name": "",
          "type": "string"
        },
        {
          "internalType": "uint256",
          "name": "",
          "type": "uint256"
        },
        {
          "internalType": "string",
          "name": "",
          "type": "string"
        },
        {
          "internalType": "uint256",
          "name": "",
          "type": "uint256"
        },
        {
          "internalType": "string",
          "name": "",
          "type": "string"
        },
        {
          "internalType": "address",
          "name": "",
          "type": "address"
        }
      ],
      "stateMutability": "view",
      "type": "function"
    },
    {
      "inputs": [],
      "name": "getVotedVoterList",
      "outputs": [
        {
          "internalType": "address[]",
          "name": "",
          "type": "address[]"
        }
      ],
      "stateMutability": "view",
      "type": "function"
    },
    {
      "inputs": [],
      "name": "getVoterLength",
      "outputs": [
        {
          "internalType": "uint256",
          "name": "",
          "type": "uint256"
        }
      ],
      "stateMutability": "view",
      "type": "function"
    },
    {
      "inputs": [],
      "name": "getVoterList",
      "outputs": [
        {
          "internalType": "address[]",
          "name": "",
          "type": "address[]"
        }
      ],
      "stateMutability": "view",
      "type": "function"
    },
    {
      "inputs": [
        {
          "internalType": "address",
          "name": "_address",
          "type": "address"
        }
      ],
      "name": "getVoterdata",
      "outputs": [
        {
          "internalType": "uint256",
          "name": "",
          "type": "uint256"
        },
        {
          "internalType": "string",
          "name": "",
          "type": "string"
        },
        {
          "internalType": "string",
          "name": "",
          "type": "string"
        },
        {
          "internalType": "address",
          "name": "",
          "type": "address"
        },
        {
          "internalType": "string",
          "name": "",
          "type": "string"
        },
        {
          "internalType": "uint256",
          "name": "",
          "type": "uint256"
        },
        {
          "internalType": "bool",
          "name": "",
          "type": "bool"
        }
      ],
      "stateMutability": "view",
      "type": "function"
    },
    {
      "inputs": [
        {
          "internalType": "address",
          "name": "_address",
          "type": "address"
        },
        {
          "internalType": "string",
          "name": "_age",
          "type": "string"
        },
        {
          "internalType": "string",
          "name": "_name",
          "type": "string"
        },
        {
          "internalType": "string",
          "name": "_image",
          "type": "string"
        },
        {
          "internalType": "string",
          "name": "_ipfs",
          "type": "string"
        }
      ],
      "name": "setCandidate",
      "outputs": [],
      "stateMutability": "nonpayable",
      "type": "function"
    },
    {
      "inputs": [
        {
          "internalType": "address",
          "name": "_candidateAddress",
          "type": "address"
        },
        {
          "internalType": "uint256",
          "name": "_candidateVoteId",
          "type": "uint256"
        }
      ],
      "name": "vote",
      "outputs": [],
      "stateMutability": "nonpayable",
      "type": "function"
    },
    {
      "inputs": [
        {
          "internalType": "uint256",
          "name": "",
          "type": "uint256"
        }
      ],
      "name": "votedVoters",
      "outputs": [
        {
          "internalType": "address",
          "name": "",
          "type": "address"
        }
      ],
      "stateMutability": "view",
      "type": "function"
    },
    {
      "inputs": [
        {
          "internalType": "uint256",
          "name": "",
          "type": "uint256"
        }
      ],
      "name": "voterAddress",
      "outputs": [
        {
          "internalType": "address",
          "name": "",
          "type": "address"
        }
      ],
      "stateMutability": "view",
      "type": "function"
    },
    {
      "inputs": [
        {
          "internalType": "address",
          "name": "_address",
          "type": "address"
        },
        {
          "internalType": "string",
          "name": "_name",
          "type": "string"
        },
        {
          "internalType": "string",
          "name": "_image",
          "type": "string"
        },
        {
          "internalType": "string",
          "name": "_ipfs",
          "type": "string"
        }
      ],
      "name": "voterRight",
      "outputs": [],
      "stateMutability": "nonpayable",
      "type": "function"
    },
    {
      "inputs": [
        {
          "internalType": "address",
          "name": "",
          "type": "address"
        }
      ],
      "name": "voters",
      "outputs": [
        {
          "internalType": "uint256",
          "name": "voter_voterID",
          "type": "uint256"
        },
        {
          "internalType": "string",
          "name": "voter_name",
          "type": "string"
        },
        {
          "internalType": "string",
          "name": "voter_image",
          "type": "string"
        },
        {
          "internalType": "address",
          "name": "voter_address",
          "type": "address"
        },
        {
          "internalType": "uint256",
          "name": "voter_allowed",
          "type": "uint256"
        },
        {
          "internalType": "bool",
          "name": "voter_voted",
          "type": "bool"
        },
        {
          "internalType": "uint256",
          "name": "voter_vote",
          "type": "uint256"
        },
        {
          "internalType": "string",
          "name": "voter_ipfs",
          "type": "string"
        }
      ],
      "stateMutability": "view",
      "type": "function"
    },
    {
      "inputs": [],
      "name": "votingOrganizer",
      "outputs": [
        {
          "internalType": "address",
          "name": "",
          "type": "address"
        }
      ],
      "stateMutability": "view",
      "type": "function"
    }
  ],
  "bytecode": "0x608060405234801561001057600080fd5b5033600260006101000a81548173ffffffffffffffffffffffffffffffffffffffff021916908373ffffffffffffffffffffffffffffffffffffffff1602179055506128bf806100616000396000f3fe608060405234801561001057600080fd5b50600436106101165760003560e01c80638ab66a90116100a2578063b404031311610071578063b404031314610304578063b63c82ca14610322578063c5036fd414610358578063c91ec7121461038e578063f7522a83146103aa57610116565b80638ab66a901461025b5780638e94568514610291578063a3ec138d146102af578063b28d92ae146102e657610116565b80635d55f2de116100e95780635d55f2de146101a35780635f74bbde146101d357806364f1832e146101ef57806370218b851461020d5780637831ffb31461022b57610116565b80630361419e1461011b57806305ad45a4146101375780633a88251a146101555780635cc48aa714610185575b600080fd5b61013560048036038101906101309190611b6e565b6103c8565b005b61013f610676565b60405161014c9190611c42565b60405180910390f35b61016f600480360381019061016a9190611c89565b610683565b60405161017c9190611cc5565b60405180910390f35b61018d6106c2565b60405161019a9190611cc5565b60405180910390f35b6101bd60048036038101906101b89190611c89565b6106e8565b6040516101ca9190611cc5565b60405180910390f35b6101ed60048036038101906101e89190611ce0565b610727565b005b6101f76108ee565b6040516102049190611c42565b60405180910390f35b6102156108fa565b6040516102229190611dde565b60405180910390f35b61024560048036038101906102409190611c89565b610988565b6040516102529190611cc5565b60405180910390f35b61027560048036038101906102709190611e00565b6109c7565b6040516102889796959493929190611eac565b60405180910390f35b610299610c49565b6040516102a69190611dde565b60405180910390f35b6102c960048036038101906102c49190611e00565b610cd7565b6040516102dd989796959493929190611f52565b60405180910390f35b6102ee610ee4565b6040516102fb9190611dde565b60405180910390f35b61030c610f72565b6040516103199190611c42565b60405180910390f35b61033c60048036038101906103379190611e00565b610f7e565b60405161034f9796959493929190611fe5565b60405180910390f35b610372600480360381019061036d9190611e00565b6113c5565b6040516103859796959493929190612070565b60405180910390f35b6103a860048036038101906103a391906120f4565b61178d565b005b6103b2611985565b6040516103bf9190611c42565b60405180910390f35b3373ffffffffffffffffffffffffffffffffffffffff16600260009054906101000a900473ffffffffffffffffffffffffffffffffffffffff1673ffffffffffffffffffffffffffffffffffffffff1614610458576040517f08c379a000000000000000000000000000000000000000000000000000000000815260040161044f90612251565b60405180910390fd5b6104626000611992565b600061046e60006119a8565b90506000600560008773ffffffffffffffffffffffffffffffffffffffff1673ffffffffffffffffffffffffffffffffffffffff168152602001908152602001600020905060008160040154146104fa576040517f08c379a00000000000000000000000000000000000000000000000000000000081526004016104f1906122bd565b60405180910390fd5b600181600401819055508481600101908161051591906124e9565b508381600201908161052791906124e9565b50858160030160006101000a81548173ffffffffffffffffffffffffffffffffffffffff021916908373ffffffffffffffffffffffffffffffffffffffff1602179055508181600001819055506103e8816006018190555060008160050160006101000a81548160ff021916908315150217905550828160070190816105ad91906124e9565b506006869080600181540180825580915050600190039060005260206000200160009091909190916101000a81548173ffffffffffffffffffffffffffffffffffffffff021916908373ffffffffffffffffffffffffffffffffffffffff160217905550817ff5f39971dd62d9929e3a9feaa6bb77fe7c7da0001babff8a65a7e51ad0201c1986868985600401548660050160009054906101000a900460ff1687600601548a60405161066697969594939291906125bb565b60405180910390a2505050505050565b6000600680549050905090565b6003818154811061069357600080fd5b906000526020600020016000915054906101000a900473ffffffffffffffffffffffffffffffffffffffff1681565b600260009054906101000a900473ffffffffffffffffffffffffffffffffffffffff1681565b600681815481106106f857600080fd5b906000526020600020016000915054906101000a900473ffffffffffffffffffffffffffffffffffffffff1681565b6000600560003373ffffffffffffffffffffffffffffffffffffffff1673ffffffffffffffffffffffffffffffffffffffff16815260200190815260200160002090508060050160009054906101000a900460ff16156107bc576040517f08c379a00000000000000000000000000000000000000000000000000000000081526004016107b39061268b565b60405180910390fd5b6000816004015403610803576040517f08c379a00000000000000000000000000000000000000000000000000000000081526004016107fa906126f7565b60405180910390fd5b60018160050160006101000a81548160ff0219169083151502179055508181600601819055506007339080600181540180825580915050600190039060005260206000200160009091909190916101000a81548173ffffffffffffffffffffffffffffffffffffffff021916908373ffffffffffffffffffffffffffffffffffffffff1602179055508060040154600460008573ffffffffffffffffffffffffffffffffffffffff1673ffffffffffffffffffffffffffffffffffffffff16815260200190815260200160002060040160008282546108e29190612746565b92505081905550505050565b60018060000154905081565b6060600380548060200260200160405190810160405280929190818152602001828054801561097e57602002820191906000526020600020905b8160009054906101000a900473ffffffffffffffffffffffffffffffffffffffff1673ffffffffffffffffffffffffffffffffffffffff1681526020019060010190808311610934575b5050505050905090565b6007818154811061099857600080fd5b906000526020600020016000915054906101000a900473ffffffffffffffffffffffffffffffffffffffff1681565b60046020528060005260406000206000915090508060000154908060010180546109f09061230c565b80601f0160208091040260200160405190810160405280929190818152602001828054610a1c9061230c565b8015610a695780601f10610a3e57610100808354040283529160200191610a69565b820191906000526020600020905b815481529060010190602001808311610a4c57829003601f168201915b505050505090806002018054610a7e9061230c565b80601f0160208091040260200160405190810160405280929190818152602001828054610aaa9061230c565b8015610af75780601f10610acc57610100808354040283529160200191610af7565b820191906000526020600020905b815481529060010190602001808311610ada57829003601f168201915b505050505090806003018054610b0c9061230c565b80601f0160208091040260200160405190810160405280929190818152602001828054610b389061230c565b8015610b855780601f10610b5a57610100808354040283529160200191610b85565b820191906000526020600020905b815481529060010190602001808311610b6857829003601f168201915b5050505050908060040154908060050160009054906101000a900473ffffffffffffffffffffffffffffffffffffffff1690806006018054610bc69061230c565b80601f0160208091040260200160405190810160405280929190818152602001828054610bf29061230c565b8015610c3f5780601f10610c1457610100808354040283529160200191610c3f565b820191906000526020600020905b815481529060010190602001808311610c2257829003601f168201915b5050505050905087565b60606007805480602002602001604051908101604052809291908181526020018280548015610ccd57602002820191906000526020600020905b8160009054906101000a900473ffffffffffffffffffffffffffffffffffffffff1673ffffffffffffffffffffffffffffffffffffffff1681526020019060010190808311610c83575b5050505050905090565b6005602052806000526040600020600091509050806000015490806001018054610d009061230c565b80601f0160208091040260200160405190810160405280929190818152602001828054610d2c9061230c565b8015610d795780601f10610d4e57610100808354040283529160200191610d79565b820191906000526020600020905b815481529060010190602001808311610d5c57829003601f168201915b505050505090806002018054610d8e9061230c565b80601f0160208091040260200160405190810160405280929190818152602001828054610dba9061230c565b8015610e075780601f10610ddc57610100808354040283529160200191610e07565b820191906000526020600020905b815481529060010190602001808311610dea57829003601f168201915b5050505050908060030160009054906101000a900473ffffffffffffffffffffffffffffffffffffffff16908060040154908060050160009054906101000a900460ff1690806006015490806007018054610e619061230c565b80601f0160208091040260200160405190810160405280929190818152602001828054610e8d9061230c565b8015610eda5780601f10610eaf57610100808354040283529160200191610eda565b820191906000526020600020905b815481529060010190602001808311610ebd57829003601f168201915b5050505050905088565b60606006805480602002602001604051908101604052809291908181526020018280548015610f6857602002820191906000526020600020905b8160009054906101000a900473ffffffffffffffffffffffffffffffffffffffff1673ffffffffffffffffffffffffffffffffffffffff1681526020019060010190808311610f1e575b5050505050905090565b60008060000154905081565b60608060006060600060606000600460008973ffffffffffffffffffffffffffffffffffffffff1673ffffffffffffffffffffffffffffffffffffffff168152602001908152602001600020600101600460008a73ffffffffffffffffffffffffffffffffffffffff1673ffffffffffffffffffffffffffffffffffffffff168152602001908152602001600020600201600460008b73ffffffffffffffffffffffffffffffffffffffff1673ffffffffffffffffffffffffffffffffffffffff16815260200190815260200160002060000154600460008c73ffffffffffffffffffffffffffffffffffffffff1673ffffffffffffffffffffffffffffffffffffffff168152602001908152602001600020600301600460008d73ffffffffffffffffffffffffffffffffffffffff1673ffffffffffffffffffffffffffffffffffffffff16815260200190815260200160002060040154600460008e73ffffffffffffffffffffffffffffffffffffffff1673ffffffffffffffffffffffffffffffffffffffff168152602001908152602001600020600601600460008f73ffffffffffffffffffffffffffffffffffffffff1673ffffffffffffffffffffffffffffffffffffffff16815260200190815260200160002060050160009054906101000a900473ffffffffffffffffffffffffffffffffffffffff168680546111889061230c565b80601f01602080910402602001604051908101604052809291908181526020018280546111b49061230c565b80156112015780601f106111d657610100808354040283529160200191611201565b820191906000526020600020905b8154815290600101906020018083116111e457829003601f168201915b505050505096508580546112149061230c565b80601f01602080910402602001604051908101604052809291908181526020018280546112409061230c565b801561128d5780601f106112625761010080835404028352916020019161128d565b820191906000526020600020905b81548152906001019060200180831161127057829003601f168201915b505050505095508380546112a09061230c565b80601f01602080910402602001604051908101604052809291908181526020018280546112cc9061230c565b80156113195780601f106112ee57610100808354040283529160200191611319565b820191906000526020600020905b8154815290600101906020018083116112fc57829003601f168201915b5050505050935081805461132c9061230c565b80601f01602080910402602001604051908101604052809291908181526020018280546113589061230c565b80156113a55780601f1061137a576101008083540402835291602001916113a5565b820191906000526020600020905b81548152906001019060200180831161138857829003601f168201915b505050505091509650965096509650965096509650919395979092949650565b600060608060006060600080600560008973ffffffffffffffffffffffffffffffffffffffff1673ffffffffffffffffffffffffffffffffffffffff16815260200190815260200160002060000154600560008a73ffffffffffffffffffffffffffffffffffffffff1673ffffffffffffffffffffffffffffffffffffffff168152602001908152602001600020600101600560008b73ffffffffffffffffffffffffffffffffffffffff1673ffffffffffffffffffffffffffffffffffffffff168152602001908152602001600020600201600560008c73ffffffffffffffffffffffffffffffffffffffff1673ffffffffffffffffffffffffffffffffffffffff16815260200190815260200160002060030160009054906101000a900473ffffffffffffffffffffffffffffffffffffffff16600560008d73ffffffffffffffffffffffffffffffffffffffff1673ffffffffffffffffffffffffffffffffffffffff168152602001908152602001600020600701600560008e73ffffffffffffffffffffffffffffffffffffffff1673ffffffffffffffffffffffffffffffffffffffff16815260200190815260200160002060040154600560008f73ffffffffffffffffffffffffffffffffffffffff1673ffffffffffffffffffffffffffffffffffffffff16815260200190815260200160002060050160009054906101000a900460ff168580546115dc9061230c565b80601f01602080910402602001604051908101604052809291908181526020018280546116089061230c565b80156116555780601f1061162a57610100808354040283529160200191611655565b820191906000526020600020905b81548152906001019060200180831161163857829003601f168201915b505050505095508480546116689061230c565b80601f01602080910402602001604051908101604052809291908181526020018280546116949061230c565b80156116e15780601f106116b6576101008083540402835291602001916116e1565b820191906000526020600020905b8154815290600101906020018083116116c457829003601f168201915b505050505094508280546116f49061230c565b80601f01602080910402602001604051908101604052809291908181526020018280546117209061230c565b801561176d5780601f106117425761010080835404028352916020019161176d565b820191906000526020600020905b81548152906001019060200180831161175057829003601f168201915b505050505092509650965096509650965096509650919395979092949650565b3373ffffffffffffffffffffffffffffffffffffffff16600260009054906101000a900473ffffffffffffffffffffffffffffffffffffffff1673ffffffffffffffffffffffffffffffffffffffff161461181d576040517f08c379a0000000000000000000000000000000000000000000000000000000008152600401611814906127ec565b60405180910390fd5b6118276001611992565b600061183360016119a8565b90506000600460008873ffffffffffffffffffffffffffffffffffffffff1673ffffffffffffffffffffffffffffffffffffffff16815260200190815260200160002090508581600101908161188991906124e9565b508481600201908161189b91906124e9565b50818160000181905550838160030190816118b691906124e9565b5060008160040181905550828160060190816118d291906124e9565b506003879080600181540180825580915050600190039060005260206000200160009091909190916101000a81548173ffffffffffffffffffffffffffffffffffffffff021916908373ffffffffffffffffffffffffffffffffffffffff160217905550817f77ac25f44e0fef43a1507ec81a076f9486c5b8240e8ad7aac0359f124342b42587878785600401548c896040516119749695949392919061280c565b60405180910390a250505050505050565b6000600380549050905090565b6001816000016000828254019250508190555050565b600081600001549050919050565b6000604051905090565b600080fd5b600080fd5b600073ffffffffffffffffffffffffffffffffffffffff82169050919050565b60006119f5826119ca565b9050919050565b611a05816119ea565b8114611a1057600080fd5b50565b600081359050611a22816119fc565b92915050565b600080fd5b600080fd5b6000601f19601f8301169050919050565b7f4e487b7100000000000000000000000000000000000000000000000000000000600052604160045260246000fd5b611a7b82611a32565b810181811067ffffffffffffffff82111715611a9a57611a99611a43565b5b80604052505050565b6000611aad6119b6565b9050611ab98282611a72565b919050565b600067ffffffffffffffff821115611ad957611ad8611a43565b5b611ae282611a32565b9050602081019050919050565b82818337600083830152505050565b6000611b11611b0c84611abe565b611aa3565b905082815260208101848484011115611b2d57611b2c611a2d565b5b611b38848285611aef565b509392505050565b600082601f830112611b5557611b54611a28565b5b8135611b65848260208601611afe565b91505092915050565b60008060008060808587031215611b8857611b876119c0565b5b6000611b9687828801611a13565b945050602085013567ffffffffffffffff811115611bb757611bb66119c5565b5b611bc387828801611b40565b935050604085013567ffffffffffffffff811115611be457611be36119c5565b5b611bf087828801611b40565b925050606085013567ffffffffffffffff811115611c1157611c106119c5565b5b611c1d87828801611b40565b91505092959194509250565b6000819050919050565b611c3c81611c29565b82525050565b6000602082019050611c576000830184611c33565b92915050565b611c6681611c29565b8114611c7157600080fd5b50565b600081359050611c8381611c5d565b92915050565b600060208284031215611c9f57611c9e6119c0565b5b6000611cad84828501611c74565b91505092915050565b611cbf816119ea565b82525050565b6000602082019050611cda6000830184611cb6565b92915050565b60008060408385031215611cf757611cf66119c0565b5b6000611d0585828601611a13565b9250506020611d1685828601611c74565b9150509250929050565b600081519050919050565b600082825260208201905092915050565b6000819050602082019050919050565b611d55816119ea565b82525050565b6000611d678383611d4c565b60208301905092915050565b6000602082019050919050565b6000611d8b82611d20565b611d958185611d2b565b9350611da083611d3c565b8060005b83811015611dd1578151611db88882611d5b565b9750611dc383611d73565b925050600181019050611da4565b5085935050505092915050565b60006020820190508181036000830152611df88184611d80565b905092915050565b600060208284031215611e1657611e156119c0565b5b6000611e2484828501611a13565b91505092915050565b600081519050919050565b600082825260208201905092915050565b60005b83811015611e67578082015181840152602081019050611e4c565b60008484015250505050565b6000611e7e82611e2d565b611e888185611e38565b9350611e98818560208601611e49565b611ea181611a32565b840191505092915050565b600060e082019050611ec1600083018a611c33565b8181036020830152611ed38189611e73565b90508181036040830152611ee78188611e73565b90508181036060830152611efb8187611e73565b9050611f0a6080830186611c33565b611f1760a0830185611cb6565b81810360c0830152611f298184611e73565b905098975050505050505050565b60008115159050919050565b611f4c81611f37565b82525050565b600061010082019050611f68600083018b611c33565b8181036020830152611f7a818a611e73565b90508181036040830152611f8e8189611e73565b9050611f9d6060830188611cb6565b611faa6080830187611c33565b611fb760a0830186611f43565b611fc460c0830185611c33565b81810360e0830152611fd68184611e73565b90509998505050505050505050565b600060e0820190508181036000830152611fff818a611e73565b905081810360208301526120138189611e73565b90506120226040830188611c33565b81810360608301526120348187611e73565b90506120436080830186611c33565b81810360a08301526120558185611e73565b905061206460c0830184611cb6565b98975050505050505050565b600060e082019050612085600083018a611c33565b81810360208301526120978189611e73565b905081810360408301526120ab8188611e73565b90506120ba6060830187611cb6565b81810360808301526120cc8186611e73565b90506120db60a0830185611c33565b6120e860c0830184611f43565b98975050505050505050565b600080600080600060a086880312156121105761210f6119c0565b5b600061211e88828901611a13565b955050602086013567ffffffffffffffff81111561213f5761213e6119c5565b5b61214b88828901611b40565b945050604086013567ffffffffffffffff81111561216c5761216b6119c5565b5b61217888828901611b40565b935050606086013567ffffffffffffffff811115612199576121986119c5565b5b6121a588828901611b40565b925050608086013567ffffffffffffffff8111156121c6576121c56119c5565b5b6121d288828901611b40565b9150509295509295909350565b7f4f6e6c79206f7267616e697a65722063616e2063726561746520766f7465722060008201527f6e6f7420796f7500000000000000000000000000000000000000000000000000602082015250565b600061223b602783611e38565b9150612246826121df565b604082019050919050565b6000602082019050818103600083015261226a8161222e565b9050919050565b7f566f74657220616c726561647920616c6c6f7765640000000000000000000000600082015250565b60006122a7601583611e38565b91506122b282612271565b602082019050919050565b600060208201905081810360008301526122d68161229a565b9050919050565b7f4e487b7100000000000000000000000000000000000000000000000000000000600052602260045260246000fd5b6000600282049050600182168061232457607f821691505b602082108103612337576123366122dd565b5b50919050565b60008190508160005260206000209050919050565b60006020601f8301049050919050565b600082821b905092915050565b60006008830261239f7fffffffffffffffffffffffffffffffffffffffffffffffffffffffffffffffff82612362565b6123a98683612362565b95508019841693508086168417925050509392505050565b6000819050919050565b60006123e66123e16123dc84611c29565b6123c1565b611c29565b9050919050565b6000819050919050565b612400836123cb565b61241461240c826123ed565b84845461236f565b825550505050565b600090565b61242961241c565b6124348184846123f7565b505050565b5b818110156124585761244d600082612421565b60018101905061243a565b5050565b601f82111561249d5761246e8161233d565b61247784612352565b81016020851015612486578190505b61249a61249285612352565b830182612439565b50505b505050565b600082821c905092915050565b60006124c0600019846008026124a2565b1980831691505092915050565b60006124d983836124af565b9150826002028217905092915050565b6124f282611e2d565b67ffffffffffffffff81111561250b5761250a611a43565b5b612515825461230c565b61252082828561245c565b600060209050601f8311600181146125535760008415612541578287015190505b61254b85826124cd565b8655506125b3565b601f1984166125618661233d565b60005b8281101561258957848901518255600182019150602085019450602081019050612564565b868310156125a657848901516125a2601f8916826124af565b8355505b6001600288020188555050505b505050505050565b600060e08201905081810360008301526125d5818a611e73565b905081810360208301526125e98189611e73565b90506125f86040830188611cb6565b6126056060830187611c33565b6126126080830186611f43565b61261f60a0830185611c33565b81810360c08301526126318184611e73565b905098975050505050505050565b7f596f75206861766520616c726561647920766f74656400000000000000000000600082015250565b6000612675601683611e38565b91506126808261263f565b602082019050919050565b600060208201905081810360008301526126a481612668565b9050919050565b7f596f752068617665206e6f2072696768747320746f20766f7465000000000000600082015250565b60006126e1601a83611e38565b91506126ec826126ab565b602082019050919050565b60006020820190508181036000830152612710816126d4565b9050919050565b7f4e487b7100000000000000000000000000000000000000000000000000000000600052601160045260246000fd5b600061275182611c29565b915061275c83611c29565b925082820190508082111561277457612773612717565b5b92915050565b7f4f6e6c79204f7267616e697a65722063616e206372656174652043616e64696460008201527f6174650000000000000000000000000000000000000000000000000000000000602082015250565b60006127d6602383611e38565b91506127e18261277a565b604082019050919050565b60006020820190508181036000830152612805816127c9565b9050919050565b600060c08201905081810360008301526128268189611e73565b9050818103602083015261283a8188611e73565b9050818103604083015261284e8187611e73565b905061285d6060830186611c33565b61286a6080830185611cb6565b81810360a083015261287c8184611e73565b905097965050505050505056fea264697066735822122011f11d5ba97782727d3bfd5f380512b8687887a9dfda251a35c584a6507470ca64736f6c63430008180033",
  "linkReferences": {},
  "deployedLinkReferences": {}
}